:1000000002006E225AECCD50E4FEF5F6C374109D4A
:100010006005FC8EF3DCFCED60072FF81886F3DD3D
:10002000FB22564F5254595745414B0227E6ED608B
:100030000DC32FF874109DF5F618A6F3DDFB22FF13
:10004000FFFFFFFFFFFFFFFFFFFFFF022FDAEF754C
:10005000F025A4246CF8E2132222FF0240050217C7
:10006000E6FFFF0240CF7F60021B9C022EC1787F1B
:10007000E4F6D8FD9080007F007E08E4F0A3DFFC6A
:10008000DEFA751A88751B0075815E0200C90211BF
:100090007BE493A3F8E493A34003F68001F208DF26
:1000A000F48029E493A3F85407240CC8C333C45440
:1000B0000F4420C8834004F456800146F6DFE480F4
:1000C0000B010204081020408090010EE47E019391
:1000D00060BCA3FF543F30E509541FFEE493A360C6
:1000E000010ECF54C025E060A840B8E493A3FAE421
:1000F00093A3F8E493A3C8C582C8CAC583CAF0A372
:10010000C8C582C8CAC583CADFE9DEE780BE6020F1
:10011000851A000102030405060708090A0B0C0DE5
:100120000E0F101112131415161718191A1B1C1D77
:100130001E1F41853A0041853F00418546004585A7
:100140004103E801F40241854002C117C11642850E
:10015000B305BBC105C1004285180000448580007D
:100160000000014485840000000141857F01C11326
:10017000C111C1124185B90000EB700DE70930C013
:10018000FDF5E5C2C0DFF580366401701189828A11
:1001900083E0A3000000F5E5C2C0DFF5802164FF25
:1001A000700DE30930C0FDF5E5C2C0DFF5801089B0
:1001B000828A83E493A330C0FDF5E5C2C0DFF4304A
:1001C000C0FDE5E5D2912200000000000000000023
:1001D0000000000000000000000000303132333425
:1001E0003536373839414243444546007A6F7421E9
:1001F000776970657D707F07121A21EF5470FF22B6
:10020000027400BB010689828A83E0225002E72241
:10021000BBFE02E32289828A83E49322BB010CE5C0
:100220008229F582E5833AF583E0225006E92582AA
:10023000F8E622BBFE06E92582F8E222E58229F5EE
:1002400082E5833AF583E49322BB010989828A839C
:10025000F8E028F022500327F722BBFE05F8E32838
:10026000F3228A838982F8E4932822BB010FF8E500
:100270008229F582E5833AF583E028F0225009C50A
:100280008229F8E58226F622BBFE09C58229F8E21A
:100290002582F222F8EA2583F583E9932822BB011F
:1002A0000689828A83F0225002F722BBFE01F322E4
:1002B000F8BB010DE58229F582E5833AF583E8F084
:1002C000225006E92582C8F622BBFE05E92582C830
:1002D000F222EF8DF0A4A8F0CF8CF0A428CE8DF000
:1002E000A42EFE22BC000BBE0029EF8DF084FFADD2
:1002F000F022E4CCF875F008EF2FFFEE33FEEC337C
:10030000FCEE9DEC984005FCEE9DFE0FD5F0E9E477
:10031000CEFD22EDF8F5F0EE8420D21CFEADF07596
:10032000F008EF2FFFED33FD4007985006D5F0F2AF
:1003300022C398FD0FD5F0EA22C2D5EC30E709B20E
:10034000D5E4C39DFDE49CFCEE30E715B2D5E4C3D3
:100350009FFFE49EFE1202E4C3E49DFDE49CFC804A
:10036000031202E430D507C3E49FFFE49EFE22C5DA
:10037000F0F8A3E028F0C5F0F8E5821582700215C8
:1003800083E038F022A3F8E0C5F025F0F0E582150F
:100390008270021583E0C838F0E822BB010A898226
:1003A0008A83E0F5F0A3E022500687F009E71922DE
:1003B000BBFE07E3F5F009E3192289828A83E493FF
:1003C000F5F074019322BB0110E58229F582E583E3
:1003D0003AF583E0F5F0A3E0225009E92582F8869A
:1003E000F008E622BBFE0AE92582F8E2F5F008E211
:1003F00022E5832AF583E993F5F0A3E99322BB0173
:100400000A89828A83F0E5F0A3F0225006F709A753
:10041000F01922BBFE06F3E5F009F31922F8BB013F
:1004200011E58229F582E5833AF583E8F0E5F0A34A
:10043000F0225009E92582C8F608A6F022BBFE0981
:10044000E92582C8F2E5F008F22275F0087582000D
:10045000EF2FFFEE33FECD33CDCC33CCC58233C589
:10046000829BED9AEC99E58298400CF582EE9BFE1A
:10047000ED9AFDEC99FC0FD5F0D6E4CEFBE4CDFA75
:10048000E4CCF9A88222B800C1B90059BA002DEC19
:100490008BF084CFCECDFCE5F0CBF97818EF2FFFB1
:1004A000EE33FEED33FDEC33FCEB33FB10D7039959
:1004B0004004EB99FB0FD8E5E4F9FA227818EF2F06
:1004C000FFEE33FEED33FDEC33FCC933C910D70525
:1004D0009BE99A4007EC9BFCE99AF90FD8E0E4C944
:1004E000FAE4CCFB2275F010EF2FFFEE33FEED3374
:1004F000FDCC33CCC833C810D7079BEC9AE89940A1
:100500000AED9BFDEC9AFCE899F80FD5F0DAE4CD02
:10051000FBE4CCFAE4C8F922C3E49FFFE49EFEE4C6
:100520009DFDE49CFC22EB9FF5F0EA9E42F0E99DE4
:1005300042F0EC6480C864809845F022EB9FF5F0AF
:10054000EA9E42F0E99D42F0E89C45F022E8600F07
:10055000ECC313FCED13FDEE13FEEF13FFD8F122F5
:10056000BB010DE58229F582E5833AF5830205A0FA
:100570005007E92582F8020976BBFE07E92582F8D3
:1005800002098222E6FC08E6FD08E6FE08E6FF22F4
:10059000E493FC740193FD740293FE740393FF22B1
:1005A000ECF0A3EDF0A3EEF0A3EFF022A882858398
:1005B000F0D083D0821205C31205C31205C3120501
:1005C000C3E473E493A3C583C5F0C583C8C582C8DB
:1005D000F0A3C583C5F0C583C8C582C822BB011A74
:1005E00089828A83D0F0D0E0F8D0E0F9D0E0FAD068
:1005F000E0FBE8C0E0C0F00209A95016E9F8D0839A
:10060000D082D0E0F9D0E0FAD0E0FBC082C0830213
:100610000997BBFE16E9F8D083D082D0E0F9D0E08C
:10062000FAD0E0FBC082C0830209BB22BB010DE50A
:100630008229F582E5833AF5830209A05007E9256E
:1006400082F802098EBBFE07E92582F80209B2E5AD
:100650008229F582E5833AF5830209C4D083D082EA
:10066000F8E4937012740193700DA3A393F87401CE
:1006700093F5828883E4737402936860EFA3A3A365
:1006800080DF8A838982E473E51B2582F582E51A7F
:100690003583F583B51A0485821B2210AF06858247
:1006A0001BF51A2285821BF51AD2AF22E51B258283
:1006B000F582E51A3583F58322EC8EF0A4CCC5F0E3
:1006C000CCCDF8EFA4CEC5F02DFDE43CFCE8A42E83
:1006D000C8C5F03DFDE43CFCEFA4FFE5F028FEE4D6
:1006E0003DFDE43CFC22EF4E6012EF60010EEDBBDD
:1006F000010B89828A83F0A3DFFCDEFA2289F050A5
:1007000007F709DFFCA9F022BBFEFCF309DFFCA917
:10071000F022E3F5F009E208B5F06BDFF58067E35E
:10072000F5F009E608B5F05EDFF5805A87F009E6D6
:1007300008B5F052DFF6804E87F009E208B5F046C2
:10074000DFF6804288828C8387F009E0A3B5F0361B
:10075000DFF6803288828C8387F009E493A3B5F0BA
:1007600025DFF5802188828C83E3F5F009E0A3B5CD
:10077000F014DFF5801088828C83E3F5F009E493B0
:10078000A3B5F002DFF402082D808780E980908015
:10079000D48034801580648074809D80B7808D8083
:1007A000A38047806A803202083988848C858982D8
:1007B0008A83E493F5F0A30592E493A31592B5F030
:1007C0006CDFEFDEED806689828A83E493F5F0A327
:1007D000E208B5F058DFF4805489828A83E0F5F0AE
:1007E000A3E608B5F047DFF5804389828A83E0F508
:1007F000F0A3E208B5F036DFF5803289828A83E41F
:1008000093F5F0A3E608B5F024DFF48020800280A1
:100810004388848C8589828A83E493F5F0A30592CA
:10082000E0A31592B5F006DFF0DEEE80007FFFB5A5
:10083000F0020F2240027F012288848C8589828AFF
:1008400083E0F5F0A30592E0A31592B5F0DFDFF1A8
:10085000DEEF80D988848C8589828A83E0F5F0A3D5
:100860000592E493A31592B5F0C3DFF0DEEE80BDF0
:1008700088F0EF60010E4E60BFED2402B40400501A
:10088000ACF582EB2402B4040050A223234582235A
:1008900090078973E709F608DFFA8046E709F2084E
:1008A000DFFA803E88828C83E709F0A3DFFA80328A
:1008B000E309F608DFFA806EE309F208DFFA8066E2
:1008C00088828C83E309F0A3DFFA805A89828A83C5
:1008D000E0A3F608DFFA804E89828A83E0A3F2085B
:1008E000DFFA804280D280FA80C680D4805580F2C0
:1008F0008029801080A680EA809A80A880DA80E231
:1009000080CA802988848C8589828A83E493A305A0
:1009100092F0A31592DFF5DEF3800B89828A83E4DF
:1009200093A3F608DFF9ECFAA9F0EDFB2288848C9A
:100930008589828A83E0A30592F0A31592DFF6DE13
:10094000F480E389828A83E493A3F208DFF980D6F6
:1009500088F0EF60010E4E60CD88F0ED2402B40403
:100960000050C3F582EB2402B4040050B9232345A0
:1009700082239008E473ECF608EDF608EEF608EF33
:10098000F622ECF208EDF208EEF208EFF222E6FBB6
:1009900008E6FA08E6F922EBF608EAF608E9F62294
:1009A000E0FBA3E0FAA3E0F922EBF0A3EAF0A3E96D
:1009B000F022E2FB08E2FA08E2F922EBF208EAF29E
:1009C00008E9F222E493FB740193FA740293F9228A
:1009D000E4F5F5740F2FF8E2F5F118E2F5F118E2FD
:1009E000F5F118E2F5F118E2F5F118E2F5F118E287
:1009F000F5F118E2F5F118E2F5F118E2F5F118E277
:100A0000F5F118E2F5F118E2F5F118E2F5F118E266
:100A1000F5F118E2F5F122F5E5C2C0EF6033EB70B5
:100A20001330C0FD0000000000C5E5C2C0F709DFBB
:100A3000F3D291226401701589828A8330C0FD004F
:100A40000000C5E5C2C0F0A3DFF5D2912264FF70BB
:100A500000D29122EFEDEF2407F8E2F5F318E2F56A
:100A6000F318E2F5F318E2F5F318E2F5F318E2F5FE
:100A7000F318E2F5F318E2F5F3ED2404F8E2F5F3E8
:100A800018E2F5F318E2F5F318E2F5F318E2F5F3DE
:100A900022EFEDEF2407F8E2F5F218E2F5F218E2A2
:100AA000F5F218E2F5F218E2F5F218E2F5F218E2C2
:100AB000F5F218E2F5F2ED2404F8E2F5F218E2F5A9
:100AC000F218E2F5F218E2F5F218E2F5F222060069
:100AD000FF0901A101150026FF007508A101953A43
:100AE000852409018102C0A101951D852309018189
:100AF00002C0A1019501852609018102C0A10195CD
:100B00000285010901B102C0A101952B85020901ED
:100B1000B102C0A101952E85030901B102C0A10156
:100B2000953F85040901B102C0A1019534850509ED
:100B300001B102C0A101953F85060901B102C0A122
:100B400001953F85070901B102C0A101953F8508C4
:100B50000901B102C0A101953F85090901B102C097
:100B6000A1019503850A0901B102C0A10195038580
:100B70000B0901B102C0A101953F850C0901B10229
:100B8000C0A101953F850D0901B102C0A101953FAA
:100B9000850E0901B102C0A101953F850F0901B180
:100BA00002C0A101950285100901B102C0A1019501
:100BB0003F85110901B102C0A101953F85120901CC
:100BC000B102C0A101953F85130901B102C0A10185
:100BD000953F85140901B102C0A101953F85150912
:100BE00001B102C0A101953F85160901B102C0A162
:100BF00001953F85170901B102C0A101953F8518F4
:100C00000901B102C0A101953F85190901B102C0D6
:100C1000A101953F851A0901B102C0A101953F8547
:100C20001B0901B102C0A101953F851C0901B10258
:100C3000C0A101953F851D0901B102C0A101953FE9
:100C4000851E0901B102C0A101953F851F0901B1AF
:100C500002C0A101953F85200901B102C0A1019503
:100C60003F85210901B102C0A101953F85220901FB
:100C7000B102C0A101953F85230901B102C0A101C4
:100C8000953F85240901B102C0A101953F85250941
:100C900001B102C0A101953F85260901B102C0A1A1
:100CA00001953F85270901B102C0A101953F852823
:100CB0000901B102C0A101953F85290901B102C016
:100CC000A101953F852A0901B102C0A101953F8587
:100CD0002B0901B102C0A101953F852C0901B10288
:100CE000C0A101953F852D0901B102C0A101953F29
:100CF000852E0901B102C0A101953F852F0901B1DF
:100D000002C0A101953F85300901B102C0A1019542
:100D10003F85310901B102C0A101953F853209012A
:100D2000B102C0A101953F85330901B102C0A10103
:100D3000953F85340901B102C0A101953F85350970
:100D400001B102C0A101953F85360901B102C0A1E0
:100D500001953F85370901B102C0A101953F853852
:100D60000901B102C0A101953F85390901B102C055
:100D7000A101953F853A0901B102C0A101953F85C6
:100D80003B0901B102C0A101953F853C0901B102B7
:100D9000C0A101953F853D0901B102C0A101953F68
:100DA000853E0901B102C0A101953F853F0901B10E
:100DB00002C0A101953F85400901B102C0A1019582
:100DC0003F85410901B102C0A101953F854209015A
:100DD000B102C0A101953F85430901B102C0A10143
:100DE000953F85440901B102C0A101953F854509A0
:100DF00001B102C0A101953F85460901B102C0A120
:100E000001953F85470901B102C0A101953F854881
:100E10000901B102C0A101953F85490901B102C094
:100E2000A101953F854A0901B102C0A101953F8505
:100E30004B0901B102C0A101953F854C0901B102E6
:100E4000C0A101953F854D0901B102C0A101953FA7
:100E5000854E0901B102C0A101953F854F0901B13D
:100E600002C0A101953F85500901B102C0A10195C1
:100E70003F85510901B102C0A101953F8552090189
:100E8000B102C0A101953F85530901B102C0A10182
:100E9000953F85540901B102C0A101953F855509CF
:100EA00001B102C0A101953F85560901B102C0A15F
:100EB00001953F85570901B102C0A101953F8558B1
:100EC0000901B102C0A101953F85590901B102C0D4
:100ED000A101953F855A0901B102C0A101953F8545
:100EE0005B0901B102C0A101953F855C0901B10216
:100EF000C0A101953F855D0901B102C0A101953FE7
:100F0000855E0901B102C0A101953F855F0901B16C
:100F100002C0A101953F85600901B102C0A1019500
:100F20003F85610901B102C0A101953F85620901B8
:100F3000B102C0A101953F85630901B102C0A101C1
:100F4000953F85640901B102C0A101953F856509FE
:100F500001B102C0A101953F85660901B102C0A19E
:100F600001953F85670901B102C0A101953F8568E0
:100F70000901B102C0A101953F85690901B102C013
:100F8000A101953F856A0901B102C0A101953F8584
:100F90006B0901B102C0A101953F856C0901B10245
:100FA000C0A101953F856D0901B102C0A101953F26
:100FB000856E0901B102C0A101953F856F0901B19C
:100FC00002C0A101953F85700901B102C0A1019540
:100FD0003F85710901B102C0A101953F85720901E8
:100FE000B102C0A101953F85730901B102C0A10101
:100FF000953F85740901B102C0A101953F8575092E
:1010000001B102C0A101953F85760901B102C0A1DD
:1010100001953F85770901B102C0A101953F85780F
:101020000901B102C0A101953F85790901B102C052
:10103000A101953F857A0901B102C0A101953F85C3
:101040007B0901B102C0A101953F857C0901B10274
:10105000C0A101953F857D0901B102C0A101953F65
:10106000857E0901B102C0A101953F857F0901B1CB
:1010700002C0A101953F85FF0901B102C0A1019500
:101080003F850109019102C0C0FF10B5FF0ACE05DE
:10109000BB1201000200000040DE28012101000116
:1010A00002030109022900010100800A090400006D
:1010B000020300000009211101000122BB05070500
:1010C0008103400002070501034000101E03560083
:1010D00061006C0076006500200053006F00660020
:1010E0007400770061007200650020035700610002
:1010F0007400630068006D0061006E002000440011
:101100006F006E0067006C0065001603FFFFFFFFB5
:10111000FFFFFFFFFFFFFFFFFFFFFFFFFFFFFFFFDF
:10112000FF10CCFF10EAFF110A88202CBA5A444F56
:101130004A7128AEFBE39BA11B564F525459FFFF47
:10114000FFFFFFFFFFFFFFFFFFFFFFFFFFFFFFFFAF
:10115000FFFFFFD2B9758E02E4F5B5C29075E610B7
:1011600075C810D2C843B92075A522F5C9F59553A5
:1011700094C3C285C284C283C28222315312485BA7
:101180001252F912005E12392E7FDC7E0591A212F6
:101190001910121D41D2AF3013051251788024303E
:1011A0001705121FE280F030151730140431CB8080
:1011B0000312380730140F121FFC500A123F8680AA
:1011C0000531CB12485112522080CC30040B7822CA
:1011D000E230E105D20854FDF230080FE47823F242
:1011E00008F2C208FF51CB9188801A300517C2055A
:1011F000908518E0FFA3E07823CFF208EFF2A20079
:10120000E433FF51CB20030241B3C203E51C75F068
:1012100025A42422F8E230E106AF1CB1AC8063E5DE
:101220001C75F025A42422F8E25411FFBF0115AF6C
:101230001C124CC6EF600DE51C75F025A42422F8A5
:10124000E24410F2E51C75F025A42422F8E2FF54D4
:1012500019FEBE110CEF4408F2E51C24FEFF1245F6
:10126000EBE51C75F025A42422F8E230E214AF1C53
:1012700012499E500DE51C75F025A42422F8E25475
:10128000FBF2AF1C71069188300408E4FFB11440F2
:1012900002D18C300B087F01B1144002D18CE4FFE5
:1012A00071067F017106908515E06007E0FF124C22
:1012B00092E4F0200414E4FF12004E400D12516F2E
:1012C000EF60072001047F0151CB2290840EEFF0E4
:1012D000600C12497FEF640160047F0180027F008F
:1012E00090840EEFF0A204E4336F601990840EE056
:1012F000FF24FF9204EF60047F01B14190840EE06F
:10130000FDE4FFD12C2290840EEFF075F025A4248B
:101310001D908412F0F8E27F0230E0027F01908499
:1013200014EFF0FE90840EE0FF2456F8E65E6002B3
:101330008187124E36908413EFF07002818790847B
:101340000EE06003B401067E007F0180047E007F12
:1013500000EE4F24FFB3920DD20C300D0E9084128C
:10136000E0FF124E6DE0F8E213920CA20CE433257C
:10137000E0FF90840EE025E025E0244A2F908411C0
:10138000F0908413E0FFF1D690840FEEF0A3EFF01D
:10139000C2B9C2BDC2AD90840EE075F025A4241878
:1013A000F8E2C45470FD8F828E83A3A3E04DF5272D
:1013B000300C0343270490840FE0FEA3E0FFF58286
:1013C0008E83A3E0F528FD7C00C004C0058F82B1A8
:1013D00029AA06A9077B01782A7C007D00D007D0C6
:1013E00006120950300D2390840EE075F025A424D8
:1013F00000FF1209D0908412E0F52590840EE0756C
:10140000F025A42410F526122DCD852729E52824C2
:1014100001FFE433FEC006C00790840FE0FEA3E0A6
:10142000F582B129A807AC067D017B007A007929F5
:10143000D007D00612095090840FE0FEA3E0FFF51C
:10144000828E83A3A3A3E0FD908411E0F8A605E5B6
:101450002804FDE804F8A6058F828E83A3A3A3E4E5
:10146000F07FFB300C027FF790840EE02456F8F9F1
:10147000E75FFF908414E04FF6908413E0FF124B77
:101480000AD2B9D2BDD2AD2212497F908516EFF0B3
:1014900064017F0060027F01B141200B04E4FF5131
:1014A000CB22AB07AA06EB7802C333CE33CED8F9F2
:1014B000FF7C007D031202E4C3E49FFFE49EF5CBB2
:1014C0008FCAF5CD8FCCEBAE027802C333CE33CECC
:1014D000D8F9FF7C007D7D1202E4AA06AB07EF2459
:1014E000FFFDEE34FFFCE4FFAE078D828C83E4FD4C
:1014F000FC7F0BB107C2C5EEFD7F09B107AE83AF1C
:1015000082AD07AC067F0AAB07ECF5ABEDF5ACAFEF
:10151000038FAD22AE07124E2C500974562FF8E6F9
:1015200054036003D38001C3228E83A3A3A3E0FFEF
:1015300075F020EFA424E0F582E5F03480AF82FE60
:101540002290840FEFF0A20BE4336F601790840FAA
:10155000E0FF24FF920BEF6002B16590840FE0FD85
:101560007F01D12C227BFE7A0079357D0812522230
:10157000E4FFB17B7F01B17BC20622D310AF01C370
:10158000C0D09085C0EFF01225319085C0E0FFE417
:10159000FB7D05D15C9085C0E0FF0B7D0AD15C909E
:1015A00085C0E0FF1249E0D0D092AF2290840EEFC8
:1015B000F0A2AF920CC2AF75F025A42422F8E4F299
:1015C000EF75F025A42423F8E4F208F2FDD12C9065
:1015D000840EE0FFB17BA20C92AF908515E044042D
:1015E000F0B16590840EE024FEFFAE07EEC39401D7
:1015F0005039AF061245DA7D0112476B9083CAE07D
:10160000B5060874FFF0E49083C7F09083C6E0B598
:10161000060374FFF0900001740C2EF9E43484FA90
:101620007B017D00AE83AF821206E622908410EF2C
:10163000F0C2B9C2BDC2ADD20AD292ED6009E0FFDC
:101640007D01121B0B8008908410E0FF121A41C22A
:101650000AA2099292D2B9D2BDD2AD22AC07AA0594
:10166000EC25E025E0244AF8EB25E028F8E6FF60C9
:1016700012124AECEC25E025E0244AF8EB25E0289C
:10168000F8E4F674562CF9EAF457F72290840EEF3A
:10169000F0BF0105124CA980027F00908424EFF076
:1016A000780F7C847D017BFE7A0079357E007F088F
:1016B00012095078177C847D017BFF7A00793F7E88
:1016C000007F051209507E007F087D007B017A842F
:1016D000791C1206E6908417E0FF908424E0FEEF68
:1016E0004E908417F090840EE0FF7B017A84790F8E
:1016F0009085797415F0E4A3F0D310AF01C3C0D086
:10170000908575EFF0C21B12531B90857BEFF06044
:101710000B908579E06005D3942040047F00E1D1EF
:1017200090857BE0FFF1D690857DEEF0A3EFF0127F
:101730004B6790857CEFF0A3E0FCA3E0F5828C83FF
:10174000A3A3A3EFF0700C90857BE0FF124B497FC1
:1017500000807E908579E0FF7E00C006C0079085FE
:101760007CE0FFB130A807AC067D01D007D006129F
:101770000950908579E0FF90857DE0FCA3E0FDF5C0
:10178000828C83A3EFF090857AE08D828C83A3A373
:10179000F08D828C83E4F0908575E02459F8E6FFA3
:1017A00090857B6017E0FDF1D68F828E83EDF090FF
:1017B000857BE0FF908575E024598010E0FF9085DF
:1017C00075E0FE245CF8EFF6FF74592EF8A6077F4B
:1017D00001D0D092AF22EF25E025E024FCF582E491
:1017E0003482AF82FE227F05EF90114D93F4702C6E
:1017F000DFF6E4FFD2FB740B2FF582E433F583E0D0
:10180000F508C2FB740E2FF582E43484F583E508F5
:10181000F00FEFB405DE7E117F4E111D227B017AA1
:1018200084790E908570E4F0A37405F0D310AF01B5
:10183000C3C0D090856DEBF0A3EAF0A3E9F09085EA
:1018400074E58EF0758E01A2AF92D5C2AF75FAAA7B
:1018500075FA55D2FD908572EEF0A3EFF090857089
:1018600074FFF5F012038545F0602A90856DE0FB6A
:10187000A3E475F001120385A9F0FA120203FF90A8
:101880008572E475F00112038585F082F583EFF02F
:1018900030FCCA80FBC2FDA2D592AF908574E0F502
:1018A0008ED0D092AF227F05EF90003E93F4705F10
:1018B000DFF6E4FFD2FB740B2FF582E433F583E00F
:1018C000F508C2FB740E2FF582E43484F583E50835
:1018D000F00FEFB405DE90840EE054F8F07E007F48
:1018E0003F111D90841D7401F0A37484F0A3741340
:1018F000F07B017A84790E124F907E007F447B0149
:101900007A847913908570E4F0A37407F0112C2287
:10191000C20111A67E007F6F7D007BFE7A007900F8
:101920001206E678007C007DFE7BFF7A1179297E25
:10193000007F10120950751C0212276D1249D1B197
:1019400069C290A20A9292C2097F0591C17FFF519C
:10195000417FFF91B47F0191867F01915A7BFF7A8D
:101960000079227F0631CF7BFF7A007922E4FF31B4
:10197000CF7BFF7A00793F7F0131CF90003FE49326
:101980004402FD7F0231C190003FE4934403FD7F98
:101990000331C190003FE4934404FD7F0431C190C2
:1019A000003FE4934405FD7F0531C171B47F01B16F
:1019B000DB1201F4D2B9D2BDD2ADC20AA209929211
:1019C00022EF24F950028006EF240AFF51212290D1
:1019D000840FEBF0A3EAF0A3E9F090840EEFF0148B
:1019E000600A24FB5020600424067030F1D99085F1
:1019F00098EFF090840EE0242AFFA3E0FBA3E0FA26
:101A0000A3E0F902287490840EE0240AFFA3E0FB0F
:101A1000A3E0FAA3E0F9120203FD512122E0FD7FC9
:101A200002C291EF2420F5E5C2C030C0FDAFE5AEA3
:101A3000058EE5C2C030C0FD9085BEE5E5F0D291CF
:101A4000229085AAEFF07F02719C9085ABEFF07F2A
:101A500001719C9085ACEFF09085AAE0FF24FA50CC
:101A6000062407601B80207401A807088002C33386
:101A7000D8FCF4FD9085ABE05DF0A3E05DF080075D
:101A8000E49085ABF0A3F09085AB511D9085ACE060
:101A9000FD7F01808CD292C2907FFF51417D01E495
:101AA000FF710B7D017F01710BE4FF915A7F019162
:101AB000867FFF91B4E4FF12464C7DF47C01E4FF85
:101AC00012462B71B47F0491C17BFF7A0079277F86
:101AD0000631CF7BFF7A007927E4FF31CF7F019079
:101AE00085B1EFF0E4FF719C9085B2EFF09085B185
:101AF000E0B40107A3E04402F080079085B2E0540F
:101B0000FDF09085B2E0FDE4FF412190859EEFF06D
:101B1000A3EDF07F02719C9085A0EFF07F01719C96
:101B20009085A1EFF090859EE0FF24FA50062407EF
:101B3000603C80537401A807088002C333D8FCFDC1
:101B40009085A0E04DF090859FE060089085A1E031
:101B50004DF0803390859EE0FF7401A80708800255
:101B6000C333D8FCF4FF9085A1E05FF08019908525
:101B7000A0743FF090859FE060089085A1743FF0CD
:101B80008005E49085A1F09085A0511D9085A1E08D
:101B9000FD7F01412190840EEFF07F06C2918FE519
:101BA000C2C030C0FDAFE5E4F5E5C2C030C0FDAF56
:101BB000E5D291227F039104E4FF91207F0290847B
:101BC0000EEFF0E4FF719C90840FEFF090840EE034
:101BD00014601014601A2402702190840FE054F7EE
:101BE000F0801890840FE04408F0E054FBF0800B84
:101BF00090840FE04408F0E04404F090840FE0FD8E
:101C0000E4FF4121719590840FEFF090840EE05431
:101C10000325E0FFA3E054F94FF0E0FD7F064121EA
:101C2000719590840FEFF090840EE0600C24FE70AC
:101C30001590840FE04420800690840FE054DFF07C
:101C4000E054F7F0800B90840FE054DFF0E044089C
:101C5000F090840FE0FD7F06412190840EEFF07F2D
:101C60001D719C90840FEFF090840EE07F00600265
:101C70007F01EF540125E0FF90840FE054FD4FF009
:101C8000E0FD7F1D412190840EEFF07F1D719C903F
:101C9000840FEFF090840EE07F0060027F01EF542C
:101CA0000125E025E0FF90840FE054FB4FF0E0FDBC
:101CB0007F1D4121EF543F90840EF0E0FD7F1C41D9
:101CC00021EF24FE5403FF90840EE054FC4FF0E01B
:101CD000FD7F034121EF60102007137F0151DF7F5B
:101CE0000A7E00B188D20722E4FF51DFC20722D367
:101CF00010AF01C3C0D0C290A20A9292C209B169CA
:101D0000E4FF91D51201F4C202C204C20B7FFF515D
:101D100041751D02E51D75F025A42422F8E4F2E5C5
:101D20001D75F025A42423F8E4F208F2AF1D121566
:101D30007B051DE51DC3940340DA31B4D0D092AFCA
:101D400022C215B14AD2C8C21422D310AF01C3C0F7
:101D5000D0200910B169D17F7F0191D5D292D29064
:101D6000D20931B4D0D092AF22A2AFE433C2AFC215
:101D7000B9C2BDC2ADD20AD29224FF92AF227FFA7D
:101D80007E00B1887FFA7E000000000000EF1F7027
:101D9000011E144E70F222AD07AC06B17EB17EED8D
:101DA0001D70011C144C70F3229085B9E060291459
:101DB0007028C2907F0151DF7F027E00B197E4FF5F
:101DC000B1DB7F01D1497F01D1237F03910490854D
:101DD000BAE0FFD1BCD29022D1072290840FEFF05D
:101DE000E4FF719C908410EFF090840FE0B4010741
:101DF000A3E04401F08007908410E054FEF090844A
:101E000010E0FDE4FF4121C2B9C290E4F5C8C2C6AA
:101E10001237FF7FFF5141D17F7F01B1DBE4FFD15A
:101E200049E4FF719590840FEFF090840EE07F00FD
:101E300060027F01EF5401C454F0FF90840FE0541E
:101E4000EF4FF0E0FD7F064121719590840FEFF098
:101E500090840EE07F0060027F01EF5401C43333B1
:101E6000335480FF90840FE0547F4FF0E0FD7F06F5
:101E70004121C2917FE2F1CFD29122E0FFD1BC1289
:101E800001F4D172C2917FE1F1CFD29122D292C2FC
:101E9000B9C2907E007F047D007B017A857947126C
:101EA00006E67F01B1DB908540D17B7D017F06F1A5
:101EB00018D2B9D2909085467402F022EF547FFF79
:101EC0009085BDE054804FF0E0FD7F054121D29226
:101ED000C2B9C2907E007F047D007B017A85793B88
:101EE0001206E6E4FFB1DB908545D17B7D017F05DD
:101EF000F1187D017F04F118D2B912286590840E83
:101F00007414F0D29090840EE0FF14F0EF70F6C2DB
:101F1000909085467401F02290840FEFF0A3EDF0CD
:101F2000E4FF719C908411EFF090840FE024FB603B
:101F30002214603B24027052908410E07F01600202
:101F40007F00EF5401C454F0FF908411E054EF4F30
:101F5000F08037908410E07F0160027F00EF540131
:101F6000C43354E0FF908411E054DF4FF0801B90A5
:101F70008410E07F0160027F00EF5401C4333354CA
:101F8000C0FF908411E054BF4FF0908411E0FDE455
:101F9000FF412190853FE0FF90853AE06F602FEF91
:101FA00014601D14601E24027024E4FD7F05F118E6
:101FB000E4FD7F04F118E4FD7F06F118C29280066B
:101FC000D1CE8002D18D90853FE090853AF0228F6E
:101FD000E5C2C030C0FDAFE5227F03719CEF240253
:101FE000FF222016045195D21680A8EF24FF9214E8
:101FF000D215F1FCEF700491EFC2C822300204C286
:1020000002D322C322908490EFF0A3EDF0229084BB
:102010008DEDF090848CEFF0E4F511D21AEFF460BE
:1020200058750F40E49083C7F09083CA74FFF09016
:10203000848CE024FB601824FB601914601624FAD9
:102040006008047012750F09800D750F40800875C7
:102050000F358003750F04AF1112004E5018E511B3
:102060002402FF7B017AC679C090858CE50FF07160
:1020700069EF6002614F7F002290848CE07E0060F7
:10208000047F0180027F0074C02FF58274C63EAFCA
:102090008290848EF0A3EFF090848EE0FEA3E0FFA8
:1020A000F5828E83A3E02402F510D394404003759B
:1020B00010408F828E83E09083C8F030130E90849E
:1020C0008EE0FEA3E0AA06F97B01815A30170E903C
:1020D000848EE0FEA3E0AA06F97B01819190848EB4
:1020E000E0FEA3E0FFF5828E83E012065C226E82A2
:1020F000226E83226E8421B786226E89226E8A2206
:102100006E8B226E8C22FB8F213390212496230626
:102110009B234CA1217EAD21B7AF2202B02245B155
:10212000000022DDEF2402FFE43EFE1251AD12005A
:1021300003614F90848EE0FEA3E0FFF5828E83A3BF
:10214000E0FD7C00C004C005EF2402FFE43EA807C8
:10215000FC7D017BFF7A0179ECD007D00612087074
:10216000EF7F0070027F0190848EE0FCA3E0F58297
:102170008C83A3EFF060049126614F7F002290844E
:102180008EE0FEA3E0FFF5828E83A3E0640360028D
:10219000614F8F828E83A3A3E07F0060027F019056
:1021A000848EE0FCA3E0F5828C83A3A3A3E0FCA3D0
:1021B000E0FD124956614F90848EE0FEA3E0FFF5EA
:1021C000828E83A3E064047036EF2402FFE43EA80D
:1021D00007FC7D017BFF7A0179F07E007F04120805
:1021E00070EF701B90848EE0FEA3E0F5828E83E09A
:1021F000B48602D201121CEFB155121D4A614F7F05
:10220000002290848EE0FEA3E0FFF5828E83A3E09F
:10221000B4182FEF2402FDE43EFAA9057B01C003A8
:10222000C002C001EF240AFFE43EFAA90790854EE0
:10223000EBF0A3EAF0A3E9F0D001D002D003D1770C
:10224000614F7F002290848EE0FCA3E0FDF5828C3C
:1022500083A3E0B402158D828C83A3A3E0FF8D825B
:102260008C83A3A3A3E0FD1105614F7F0022AF1172
:1022700012004E4002614F9083C6E065117002610A
:102280004F90848EE0FCA3E0FDF5828C83E0FF900C
:1022900083C7E0B507089083CAE065116036E51191
:1022A0002402FFAA04A9057161EF602E90840B74CB
:1022B00042F090848EE0FEA3E0F5828E83E090836E
:1022C000C7F09083CAE511F09083C6E0B5110B7496
:1022D000FFF0800690840B7442F07F0022AF111251
:1022E000004E50077152EF7002FF2290848EE0FE84
:1022F000A3E0F5828E83E064958054AF1112004E06
:10230000504D7152804990C6C2E0B45414A3E0B459
:10231000450FA3E0B4530AA3E0B4540512517580ED
:102320002E90C6C2E064047026A3E0644C7020A323
:10233000E06449701AA3E0B44E15A3E0B44B101248
:102340001CEFC2C81237FF1237FC80037F05227FC3
:102350000522E5112402FF90848EE0FCA3E0AA048C
:10236000F97B0190858CE510F0D310AF01C3C0D08C
:10237000908588EFF0A3EBF0A3EAF0A3E9F0C21E8A
:10238000908588E02459F8E690858DF090858CE062
:10239000D3941B4031908588E0FFA3E0FBA3E0FAD3
:1023A000A3E0F9908579741BF0A37402F01216F97A
:1023B000EF603590858AE475F01B12036F90858C71
:1023C000E024E5F080C6908588E0FFA3E0FBA3E071
:1023D000FAA3E0F9A3E0908579F0A37403F0121654
:1023E000F9EF60047F01803990858DE0FF6029124C
:1023F00017D68F828E83E0FF913B90858DE0FF1290
:1024000017D68F828E83E4F090858DE0FF908588CB
:10241000E02459F8A6078007908588E0FFB1317F56
:1024200000D0D092AF22C2AF90C7D6E04408F07F70
:10243000407E069182E4FFB19680FEAD07ED601903
:10244000FF1217D68F828E83E09085C1F0AF051200
:102450004B0A9085C1E0FD80E422120203246460EF
:102460001824FE600F04701390000212021CFF1269
:102470005189800712519E8002917E7F05227F2024
:102480007E039085ADEEF0FCA3EFF0FD7F08021512
:1024900007908490EBF0A3EAF0A3E9F0908490E039
:1024A000FBA3E0FAA3E0F912020324FE60642466B1
:1024B000607A249B7078908490E0FBA3E0FAA3E01C
:1024C0002402F9E43AFAA3EBF0A3EAF0A3E9F090CE
:1024D0008493E0FBA3E0FAA3E0F912039BFDEDFE79
:1024E000908493E0FBEE1203FE908493E0FBA3E064
:1024F000FAA3E0F99000021203C6FDACF0EDFE90E5
:102500008493E0FB900002EE12041D1237E27F017B
:102510008015908490E0FBA3E0FAA3E02402F9E4A4
:102520003AFA1237EF7F021237DC8002917E7F0584
:1025300022D310AF01C3C0D0AB07C21D745C2BF80F
:10254000E6FF913B745C2BF8E4F674592BF8E4F643
:10255000D0D092AF22D310AF01C3C0D0C222B1BD40
:10256000EF64016004C221B17FD222B1BDEF6401EA
:102570006004D221B17FC218D219D0D092AF227E8E
:10258000003021027E027F00E42FFFEE3466FE7CE5
:10259000027D00120339AE8E758E01A2AF92D5C2B4
:1025A000AF75FAAA75FA55D2FD8FFA20FCFDC2FD6F
:1025B000A2D592AFAF068F8E22A21892227A01A2E4
:1025C0002292209085C3EAF0F14B5003AF02220A19
:1025D000EAB415EB7F0022A218B39222B1BDEF64DA
:1025E000016007A218B39221B17F9085A77401F012
:1025F0009085A6F09085A6E0FFD394145070A218A1
:10260000921F9085C2EFF0F1199085A8EEF0A3EF2C
:10261000F0F5828E83E493FFB4FF028051EF64F003
:1026200070449085A9E02401FF9085A8F17E9085F3
:10263000A6E0B50731A218B392239085A7E0FF0466
:10264000F09085A2EFF09085A8E0FEA3E0AA06F93D
:102650009085A374FFF0A3EAF0A3E9F0D1F490858C
:10266000A7E0641460089085A6E004F08086A218B4
:102670009221B17FB21822D310AF01C3C0D0908590
:102680004BEBF0A3EAF0A3E9F0B1B9908551EFF07C
:10269000C219700BB1D7B1B9908551EFF06050906D
:1026A000855274F0F078537C857D0190854BE0FB7A
:1026B000A3E0FAA3E0F97E007F08120950785B7C62
:1026C000857D0190854EE0FBA3E0FAA3E0F97E0052
:1026D0007F10120950A2189223908551E09085A294
:1026E000F0A37401F0A37485F0A37452F0D1F4D078
:1026F000D092AF22A223921F9085A2F1149085A3BD
:10270000E0FBA3E0FAA3E0F9908570E4F0A374196C
:10271000F002182CE09085C2F09085C2E024FFFF03
:10272000E434FFFE7C007D191202D27C00301F02CF
:102730007C027D00E42DFDEC3466CD2FFFED3EFEE6
:1027400022A21892209085C37401F07B19A22092D6
:102750001F9085C3F1140FEFAC0670010E14F582C3
:102760008C83E493F46002C322DBEBD322D218C241
:1027700019F1415008C218F1415002D21922E03437
:1027800000FAA9077BFF90858EEBF0A3EAF0A3E99E
:10279000F0A37414F0A218921F908591F114908503
:1027A00092EEF0A3EFF0F5828E83E493B4F02D90D7
:1027B0008593E02401FF908592E03400A807FC7D1A
:1027C000FF90858EE0FBA3E0FAA3E0F97E007F088E
:1027D000120870EF7006908591E0FF22908591E0DD
:1027E00014F070B1FF22C0E0C0F0C083C082C08589
:1027F000C084C0925392FEC0D075D000C000C0010A
:10280000C002C003C004C005C006C007C2C620176E
:1028100006F10D11938002113AD007D006D005D0F1
:1028200004D003D002D001D000D0D0D092D084D038
:1028300085D082D083D0F0D0E032C2B9C2ADE4F509
:10284000CDF5CCF5C890853AE0B4011611659084B9
:10285000257414F0D290908425E0FF14F0EF70F608
:10286000C290D2B9227B017A85791A7D2090859811
:10287000EDF07FA0C2918FE5C2C030C0FD90859879
:10288000E0FF020179EF44A8FF90842DE090859845
:10289000F080E190840BE0601B147012E490840BD4
:1028A000F09083CA74FFF0E49083C7F080069084B0
:1028B0000BE014F074132515F51574FF3514F51499
:1028C000FEAF15E4FCFD7BB97AD7F9F8C3120526F3
:1028D0005012908351E004F074B92515F51574D7A2
:1028E0003514F51422908427EFF0E0FF2456F9E721
:1028F0005D6029EF25E025E0244AF8EB25E028A3D8
:10290000F0F8E6FF121530AA06A9077B019084278C
:10291000E0FFA3E004F8E690842D8020908427E077
:10292000FD75F025A42418F8E2FEC45470A3F0AF9E
:10293000057B017A84792890842D7401F00185C289
:10294000B9C2BDC2ADD20AD292F1B6EF20E60241C1
:102950006A540EFFC313F50A1200668F0BE50BD302
:1029600094204002416A7B007A007929F1A8E52988
:1029700030E206E4FB7D0180047B017D02AF0A1199
:10298000E5852927E50B14F528E4F529E50AC39424
:10299000025002415AE50A75F025A42422F8E220EB
:1029A000E002415AE50A75F025A42418FD7F6FABBB
:1029B00027124E9E4002413BE50A75F025A42400F3
:1029C000FF1209D075256F51BBEF6067D20FE52765
:1029D000540314601414601814601E2403701FE55F
:1029E0000A24FEFF1246788015AF0A124D58800E59
:1029F000AF0A124A36920F8005AF0A124B87517701
:102A0000300F1FE50A75F025A42418F9E4A801FC8D
:102A10007DFE7BFE7A00796FFE7F05120950AF0ABA
:102A2000B127E50A75F025A42423F8E4F2087429F7
:102A3000F280379084267407F0802FE50A75F02520
:102A4000A42400FF1209D0E50A75F025A42418F586
:102A50002551BBEF601451778010E50AB401047171
:102A6000508007E50A7003120059C20AA209929227
:102A7000D2B9D2BDD2AD22AD27AF0A908427EFF0F4
:102A8000ED30E219E0FF2456F8740446F674562F30
:102A9000F8E630E325E0FF7B017D0A801A90842769
:102AA000E0FF2456F8740846F674562FF8E630E234
:102AB00009E0FFE4FB7D0512165C22E50A75F025AE
:102AC000A42410F526E528D3941F5007E528C394C5
:102AD0000550037F00227426252890842EF075F679
:102AE0000CE0FF2403F8E6F5F3EF2402F8E6F5F333
:102AF000E0FF04F8E6F5F3A807E6F5F3B1FA75F69A
:102B00000C90842EE0FF2403F8A6F3EF2402F8A62D
:102B1000F3EF04F8A6F3A807A6F374FC2528F5281C
:102B2000B186D11775F60C90842EE0FF2403F8E6E9
:102B300065F37016EF2402F8E6B5F30EE004F8E64C
:102B4000B5F307A807E665F360037F00227F012243
:102B50009084277450F0C2107857E620E102A12635
:102B6000E0F8E67002A126E527703FE528C3940847
:102B700040387F2A90842BEFF07A00F97B001251C5
:102B80004390842CEEF0A3EFF04E7002A1269084C7
:102B90002CE0FEA3E0AA06F97BFF78257C007DFEF1
:102BA0007E007F10120950D20622E527B4010730BB
:102BB00004047F00800FE52764026002A12620063E
:102BC00002A1267F251209D075251875263551C515
:102BD000EF7002A126E528C394115002803490843E
:102BE0002A742AF0908427E0F8E6FF121530EF24CB
:102BF00001FFE43E908428F0A3EFF0A3E0F87C000E
:102C00007D007BFF7A00793F7E007F05120870EF20
:102C10006003021565908428E0FEA3E0FF2408F518
:102C200082E43EF583E05407F50CAA06A9077B0170
:102C3000C00175F025A42410F9E4A801FC7DFED0A4
:102C400001FE7F0412095090842AE0240DF97A00D5
:102C50007B00C001E50C75F025A42414F9E4A8015B
:102C6000FC7DFED001FE7F04120950121565E52798
:102C70007BFEB401067A00790080047A007925C0D1
:102C800003C002C001E50C75F025A42400F9E4A8F6
:102C900001FC7DFED001D002D003FE7F101209504E
:102CA000AF0C12157BAF0C124D07E50C75F025A487
:102CB0002422F87401F2E50C75F025A42423F8E42D
:102CC000F2087429F290842AE02405F97A007B0046
:102CD000C001E50C75F00FA424E8F9748435F0A860
:102CE00001FC7D01D0017E007F08120950E50C75C2
:102CF000F00FA424F0F582E43484F5831205AC00CF
:102D0000000000E50C75F00FA424F4F582E434848F
:102D1000F583E4F07D01AF0C121B0BD208D20290B8
:102D20008515E04404F022AA07A2AF9210C2AFE4D6
:102D3000FB7D01B140AF020B0DB140A21092AF225A
:102D4000AC0774562CF9E75D603BEC25E025E024E8
:102D50004AF8EB25E028F8E6FF908427F0121530BA
:102D6000908428EEF0A3EFF0EC75F025A42418F879
:102D7000E2C45470FF908428E0FCA3E0F5828C83C9
:102D8000E0548F4FF0227F01B1C4E528D394107F27
:102D90002A40117D10B1A67F02B1C47F3AE52824F4
:102DA000F0FD8002AD289085B5EFF0A3EDF01200A4
:102DB0000875E80DE5E820E0FB9085B5E0FFA3E0AD
:102DC000FD02002EE4F5F58FF275E81022D117B15F
:102DD000FA742A2528FF75F60C2403F8A6F3A80731
:102DE000E82402F8A6F3A807E804F8A6F3A807A6C3
:102DF000F3B18674042528F52822E4F5F5F5F2F5FB
:102E0000F2AD25AF26120A9175F20175E81075E84A
:102E10000DE5E820E0FB22E4F5F5F5F2F5F2F5F238
:102E2000F5F2F5F2F5F2F5F2F5F2F5F2F5F2F5F26A
:102E3000F5F2F5F2F5F2F5F2F5F275E810F5F68532
:102E400028F3F5F3AD25AF26120A5475F34975E85A
:102E500001E5E820E0FBE4F5F6F5F3F5F3F5F3F52D
:102E6000F3F5F3F5F3F5F3F5F3F5F3F5F3F5F3F522
:102E7000F3F5F3E5275483F5F375F301E4F5F37502
:102E8000E801E5E820E0FBE528D3941040237F2A01
:102E90007D1012000875E801E5E820E0FB7F3AE5C7
:102EA0002824F0FD12000875E801E5E830E0118003
:102EB000F97F2AAD2812000875E801E5E820E0FB5B
:102EC00022C0E0C0F0C083C082C085C084C09253DD
:102ED00092FEC0D075D000C000C001C002C003C0C7
:102EE00004C005C006C00720C802F10DD007D006F7
:102EF000D005D004D003D002D001D000D0D0D092E1
:102F0000D084D085D082D083D0F0D0E032D283C2BA
:102F1000B9C2BDC2AD908517E004F0B40702E4F079
:102F2000300976D20AD292C290A20A9292C2099035
:102F30008517E090004493FF121EBC121E84121EDF
:102F400072D292D290D209D203051CE51CB40303BD
:102F5000751C02784906E6B40802E4F67849E6FFF3
:102F6000C394035034EF75F025A42424F9E37002D0
:102F700019E360257849E6FF75F025A42423F808B5
:102F8000E224FFFDF218E234FFF24D700CEF75F011
:102F900025A42422F8E24402F2C20AA2099292D2A3
:102FA000B9D2BDD2ADC28322AE07C2917F61121FDA
:102FB000CFAF06020A177D707F07121A21EF5470F7
:102FC000908446F0E0FFC0077F07121B9CEF540F70
:102FD000FED0E04EFF908446F022C0E0C0F0C083F7
:102FE000C082C085C084C0925392FEC0D075D0000C
:102FF000C000C001C002C003C004C005C006C007B5
:1030000020170512293F8002112BD007D006D005CA
:10301000D004D003D002D001D000D0D0D092D08440
:10302000D085D082D083D0F0D0E032C2B9122FB692
:10303000AB07EB30E51F90853BE475F00112036FA1
:10304000FED3908542E095F0908541E09E500411BA
:10305000CC800211D6EB30E43090853EE004F07075
:103060000690853DE004F0121E8490853BE475F0E7
:103070000112036FFED3908542E095F0908541E008
:103080009E500411CC800211D6EB30E63C7B017AD5
:10309000847926310278267C847D017B017A8579CA
:1030A0001A7E007F20120870EF7010908548E004AF
:1030B000F07006908547E004F0800E90854AE004A9
:1030C000F07006908549E004F0D2B922C2B9C290EE
:1030D000E490853FF022908543E0FEA3E0FFE4F515
:1030E000C8EF7802C333CE33CED8F9FF7C007D031E
:1030F0001202E4C3E49FFFE49EF5CD8FCCD2ADD2A3
:10310000C8227F08908447EBF0A3EAF0A3E9F0908F
:103110008446EFF014600C24FB600824FE60172442
:10312000087030121FD990844AEFF0C29190844603
:10313000E0240AFF80183178908446EFF0C39407AA
:10314000501112006690844AEFF0C2917F61121F05
:10315000CF8005E490844AF090844AE0FF90844751
:10316000E0FBA3E0FAA3E0F9120A17908446E0FE20
:1031700090844AE0FDEDFF223185EF540EFFE4C359
:1031800013EF13FF22C2917FFF121FCFD291229023
:10319000849BEBF0A3EAF0A3E9F0E4A3F09085466A
:1031A000E06401703490849BE0FBA3E0FAA3E0F9B3
:1031B00090853BE0FDA3E0FFEDCF8FF01203FE9082
:1031C000853DE0FDA3E0FFED900002CF8FF01204FB
:1031D0001D90849E7404F0804A908546E0640270DD
:1031E0004290849BE0FBA3E0FAA3E0F9908547E0DE
:1031F000FDA3E0FFEDCF8FF01203FE908549E0FDC7
:10320000A3E0FFED900002CF8FF012041D90849E8A
:103210007404F07E00FF7D007B017A8579471206F9
:10322000E611CC90849EE0FF22908495EBF0A3EA17
:10323000F0A3E9F07E007F407D007B017A8379CBAB
:103240001206E69083CB74FFF07B017A8379CC3150
:103250008F7B017A8379CBC003C002C00190849533
:10326000E0FBA3E0FAA3E0F91205DD908498E0FB0F
:10327000A3E0FAA3E0F9E475F0401203FE7F042214
:1032800090848CEFF0A3EDF0A3EBF0A3EAF0A3E9B8
:10329000F0E4F50FD21A301320A3E0F9A3E0FAA36B
:1032A000E0908498C9F0A3EAF0A3E9F090848EE05E
:1032B000FBA3E0FAA3E0F9A15A301722908491E031
:1032C000F9A3E0FAA3E0908498C9F0A3EAF0A3E997
:1032D000F090848EE0FBA3E0FAA3E0F9412990840A
:1032E0008CE0F46002618A9083CA74FFF0E49083FA
:1032F000C7F09083C6E0B50F0E9083CBE0B4FF0714
:103300009083C674FF61AC7E007F407D007B017AB4
:103310008379CB1206E69083CB74FFF09083C8E0EC
:103320009083CCF0246C602424FE603314601D2450
:103330000624F7500624F9602480249083CC7494EA
:10334000F0A37402F0A3F0E4A3F080139083CC7494
:1033500094F0A37402F0E4A3F0A3F0800291417B07
:10336000017A8379CBC003C002C00190848EE0FB58
:10337000A3E0FAA3E0F91205DD908491E0FBA3E05D
:10338000FAA3E0F9E475F03F804C9083C6E0650F46
:10339000704A90848CE0FF9083C7E0B5073E90832D
:1033A000C674FFF09083CAF0E49083C7F07B017A83
:1033B0008379CBC003C002C00190848EE0FBA3E000
:1033C000FAA3E0F91205DD908491E0FBA3E0FAA3F3
:1033D000E0F9E475F0401203FE7F0422AF0F120003
:1033E0004E400D9083CA74FFF0E49083C7F0FF2233
:1033F00090848CE0FF9083C7E0B507089083CAE013
:10340000650F603A908494EFF0E50F2402FF7B0192
:103410007A84799490858C7401F0122369EF601E90
:1034200090840B7442F090848CE09083C7F090837A
:10343000CAE50FF09083C6E0B50F0374FFF07F007C
:1034400022901126740193FA7402932402F9E43A4B
:10345000AF01908497F0A3EFF0A37401F0A37483FD
:10346000F0A374CCF0908499E0FBA3E0FAA3E0F918
:1034700074A112029E908499E0FBA3E0FAA3E0F904
:1034800090000174221202B0900004120590900086
:1034900002120560E4908495F0A3F0908495E0FE1C
:1034A000A3E0FFC3940AEE648094805046EF25E0C9
:1034B000FFEE33FEA3E0FCA3E02FF582EC3EF583A4
:1034C000E493FF908499E0FBA3E0FAA3E02406F9DB
:1034D000E43AFA908495E0FCA3E029F9EA3CFAEF9B
:1034E00012029E908496E004F07006908495E004A9
:1034F000F080A8E4908495F0A3F0908495E0FEA37A
:10350000E0FFC39414EE648094805046D2FBE42F15
:10351000FFEE3401FEB153C2FB908499E0FBA3E0BF
:10352000FAA3E02410F9E43AFA908495E0FCA3E0D1
:1035300029F9EA3CFAEF12029E6003B4FF04E402A8
:10354000029E908496E004F07006908495E004F06A
:1035500080A8228F828E83E0FF22908495EBF0A3D7
:10356000EAF0A3E9F0901126740193FA740293240F
:1035700002F9E43AAF0190849BF0A3EFF0E4FDFC84
:10358000ED25E0FFEC33FE90849BE0FAA3E02FF5FD
:1035900082EA3EF583E493FF74CB2DF58274833C7D
:1035A000F583EFF00DBD00010CED640A4C70D17B8A
:1035B000017A8379CBC003C002C001908495E0FBFF
:1035C000A3E0FAA3E0F91205DD908498E0FBA3E004
:1035D000FAA3E0F9E475F0401203FE7F042290FFA5
:1035E000FD120688EBF0A3EAF0A3E9F090FFFF12CA
:1035F00006887B01851A83851B82A982AA8390FF96
:10360000FD120688EBF0A3EAF0A3E9F090000A129D
:1036100006ACE0FBA3E0FAA3E0F990FFFD120688F8
:10362000EBF0A3EAF0A3E9F090000A1206ACE0FB8D
:10363000A3E0FAA3E0F990FFFD120688EBF0A3EAFD
:10364000F0A3E9F090000A1206ACE0FBA3E0FAA3B5
:10365000E0F91242D7BF010A851A83851B82E0FF79
:10366000E18A851A83851B82A3E0FBA3E0FAA3E02D
:10367000F912020320E502E18890000112021C24E5
:10368000F77002E13224086002E184900002120225
:103690001C6403704490000312021CFF900004128B
:1036A000021CFD9000041206ACE0FBA3E0FAA3E0CC
:1036B000F9C003C002C0019000071206ACE0F9A3F4
:1036C000E0FAA3E0908491C9F0A3EAF0A3E9F0D076
:1036D00001D002D0035180E18A851A83851B82A321
:1036E000E0FBA3E0FAA3E0F990000212021CB4018F
:1036F0003D90000412021CFF9000041206ACE0FB97
:10370000A3E0FAA3E0F9C003C002C00190000712D1
:1037100006ACE0F9A3E0FAA3E0908490C9F0A3EA34
:10372000F0A3E9F0D001D002D003F19D805C7F00CE
:103730008058851A83851B82A3E0FBA3E0FAA3E0EF
:10374000F990000212021CB4031390000312021C31
:10375000FF90000412021CFD12200E802D851A839A
:10376000851B82A3E0FBA3E0FAA3E0F9900002121C
:10377000021CB4020B90000412021CFFF190800A9C
:103780007F0080067F0080027F0090000A0206888A
:1037900090C6C0E0C36001D392857F052290848DDE
:1037A000EBF0A3EAF0A3E9F0E4908350F07B017A18
:1037B000837950C003C002C00190848DE0FBA3E078
:1037C000FAA3E0F91205DD908490E0FBA3E0FAA3F0
:1037D000E0F9E475F0011203FE7F042290853FEFCB
:1037E000F02278417C857D017E007F0502095078BA
:1037F000407C857D017E007F01020950D21722E4C2
:10380000FDFC7F0B02150775A4012290840FEBF0DD
:10381000A3EAF0A3E9F09084C374FFF0A37410F05E
:10382000A37491F09084C674FFF0A37410F0A37495
:10383000A3F09084C974FFF0A37411F0A37420F076
:103840009084CC7404F0A314F0A37409F0A374045E
:10385000F09084D37402F0E49084D0F09084E7F088
:103860009084D1F0A3F090840FE0F9A3E0FAA3E0F4
:103870009084D4C9F0A3EAF0A3E9F0908412E0F9AF
:10388000A3E0FAA3E09084D7C9F0A3EAF0A3E9F09B
:10389000908415E0F9A3E0FAA3E09084DAC9F0A3DC
:1038A000EAF0A3E9F0908418E0F9A3E0FAA3E0902D
:1038B00084DDC9F0A3EAF0A3E9F0EF601290C7D667
:1038C000E04408F07F327E00121D97E054F7F0D2FA
:1038D000BBD2BC90C7AE741DF090C7AC7401F09021
:1038E000C7A9741FF090C7AD7401F090C7AA741FE8
:1038F000F090C78104F0A37440F0A37460F0A37447
:1039000064F0A37468F090C78874C0F0A37420F0CA
:10391000A37440F0A37460F0A37464F0A37468F01F
:1039200090C7DE7401F0A3F0E4A3F0A3F02290842A
:103930001274FFF0A37445F0A374A5F0A374FFF014
:10394000A37445F0A374F4F0A374FFF0A37449F0DA
:10395000A37429F07BFF7A3579DE7F01110B7A4958
:10396000794D7D407F8131847BFF7A4979537D4059
:103970007F0131849083C674FFF09083CAF0E49095
:1039800083C7F02290840EEBF0A3EAF0A3E9F0AC39
:1039900007EC547FFF14FE7401A807088002C333AC
:1039A000D8FC908411F0EC30E75990840EE0FBA332
:1039B000E0FAA3E0F9EE75F003A424A5F582E4345F
:1039C00084F583EBF0A3EAF0A3E9F090840EE0FB2A
:1039D000A3E0FAA3E04A4B90C7AC6014E0FF9084E8
:1039E00011E0FEEF4E90C7ACF090C7DEE04EF02243
:1039F000E0FF908411E0F4FEEF5E90C7ACF090C75A
:103A0000DE806A90840EE0FBA3E0FAA3E0F9EE7595
:103A1000F003A424B4F582E43484F583EBF0A3EA44
:103A2000F0A3E9F090840EE0FBA3E0FAA3E04A4B98
:103A300090C7AD6027E0FF908411E0FEEF4E90C785
:103A4000ADF090C7DFE04EF0EC75F002A424C5F9AC
:103A500074C735F08982F58374FFF022E0FF90840B
:103A600011E0F4FEEF5E90C7ADF090C7DFE05EF0CE
:103A700022EF547F1425E0FEEF30E70BEE7E0024AA
:103A8000B6F9EE34C7800BAF067E0074C62FF9EE90
:103A900034C7AF01908487F0A3EFF0ED908487B432
:103AA000010CE0FEA3E0F5828E837401F022E0FEBB
:103AB000A3E0F5828E83E4F02290C7E8E09084E0F2
:103AC000F090C7E9E09084E1F090C7EAE09084E3E9
:103AD000F090C7EBE09084E2F090C7ECE09084E4D3
:103AE000F090C7EFE0FE90C7EEE0FDEDFF9084E5BB
:103AF000EEF0A3EFF09084E0E05460600261F0A388
:103B0000E0B40B00400261EE903B0FF828287302EE
:103B10003B32023B34023BEE023B34023BEE023BC3
:103B200081023B30023BEE023B8D023BAA023BDFAF
:103B300081B0C1B09084E0E024FE60232402703F95
:103B40009084E3E0B401169084E1E09084D0B40165
:103B500006E054FDF08068E04402F080628112903B
:103B600084E3E070189084E1E09084E4B40106E01E
:103B7000FFE4FD8004E0FF7D0151718042811281EC
:103B8000129084D37403F0E49084D1F0229084D313
:103B9000E024FC600E047010E490C700F090C7B5FC
:103BA00004F0229084D1803A80689084E3E014602D
:103BB000150470299084D37403F0E49084D1F090BC
:103BC000C7B47402F0229084D37404F09084D0E0DF
:103BD0004401F0A37401F090C7B404F02280339044
:103BE00084D2E090C700F090C7B57401F022802223
:103BF0009084E0E0FF5460FEBE20179084E5E07002
:103C000002A3E0600BEF20E70790C7C574FFF02226
:103C1000800790C7B47411F0227B017A84798A906E
:103C2000FFFD120688EBF0A3EAF0A3E9F07B017A2E
:103C300084798790FFFD120688EBF0A3EAF0A3E9F0
:103C4000F07B017A8479E0C0029084D4A3E0FAA3E7
:103C5000E0F5828A83D002120686EF14603D14607C
:103C60004114604B24FE603304703E908487E0FB77
:103C7000A3E0FAA3E0F9A3E0FEA3E0FF9084E5E06F
:103C8000FCA3E0FDC39FEC9E5002800B90848AE071
:103C9000FEA3E0FFAC06FDB1D6A1FF90C7B474024D
:103CA000F02290C7C574FFF02290C7B47411F022BF
:103CB0009084E2E024FE603614605A24FA4002A1A7
:103CC000CD24086002A1D49084C3E0FBA3E0FAA352
:103CD000E0F99084E5E0FEA3E0FFC39412EE9400C7
:103CE0005006AC06AD07A1C97C007D12A1C9908425
:103CF000C6E0FBA3E0FAA3E0F99084E5E0FEA3E0D0
:103D0000FFC39429EE94005006AC06AD0780047CF6
:103D1000007D29A1C99084E3E070227B017A847937
:103D2000CC9084E5E0FEA3E0FFC39404EE94005041
:103D300006AC06AD0780047C007D04A1C99084E335
:103D4000E014C394034002A1CD9084C9E0FBA3E03A
:103D5000FAA3E0F99084E3E0FF75F003A424FDF5F5
:103D600082E5F034FFF58312062CC003C002C001C7
:103D70009084C9E0FBA3E0FAA3E0F9EF1475F00327
:103D8000A4F58285F08312062C120203FF9084E5CD
:103D9000E0FCA3E0FDC39FEC9400500280259084DA
:103DA000C9E0FBA3E0FAA3E0F99084E3E01475F026
:103DB00003A4F58285F08312062C120203FF7E0015
:103DC0007C00FDD001D002D003B1D6803290C7B4C0
:103DD0007411F022811990849FEBF0A3EAF0A3E91B
:103DE000F0AF05A3ECF0A3EFF09084C3E0FBA3E0F9
:103DF000FAA3E0F990000712021C9084A4F022902C
:103E000084A2E0FCA3E0FD4C70219084E7E0B401C3
:103E10000890C7B4E04410F0229084E77401F0E405
:103E200090C7B5F090C7B47402F0229084A4E0FF6C
:103E30007E00C3ED9FEC9E500C9084A2E0FCA3E0BA
:103E4000AE04FF8000E490848CF090848CE0C39FEB
:103E5000E49E502D90849FE0FBA3E0FAA3E0F9904C
:103E6000848CE0FDF58275830012021CFC74002D29
:103E7000F582E434C7F583ECF090848CE004F080A4
:103E8000C99084A4E0FDC3EF9DEE94005006908499
:103E9000E77401F090C7B5EFF09084A0EE8FF012B8
:103EA000036FC39084A3E09FF09084A2E09EF02271
:103EB0009084D3E0640370269084E4E06002E17FA4
:103EC0009084C6E0FBA3E0FAA3E0F9900007120299
:103ED0001C5440C41313540390C701F0E172908442
:103EE000D3E064046002E17F90C701F09084E0E0D9
:103EF000247F603F14603F24026002E17D9084D003
:103F0000E030E10890C7007402F08005E490C7003B
:103F1000F090C700E0FF9084C6E0FBA3E0FAA3E0C6
:103F2000F990000712021C5440C413135403FEEF0F
:103F30004E803FE4803C9084E4E030E70D547F7590
:103F4000F002A424B4F974C7800F9084E4E0547F95
:103F500075F002A424C4F974C735F0AF01908487CA
:103F6000F0A3EFF0908487E0FEA3E0F5828E83E07B
:103F7000540190C700F090C7B57402F02280009001
:103F8000C7B47411F0229084D0E030E10D75A040E8
:103F90007F017E00121D97E4F5A022E4FD9084D0FD
:103FA000E054FBF09084D3E0B404089084D0E03077
:103FB000E1010D9084D37405F09084DDE0FBA3E073
:103FC000FAA3E04A4B6011AF059084DDA3E0FAA3A9
:103FD000E0F5828A83120686229084D37402F0E48C
:103FE0009084D1F0A3F09084D0F09084D7E0FBA32C
:103FF000E0FAA3E04A4B600C9084D7A3E0FAA3E078
:10400000F912068222C0E0C0F0C083C082C085C021
:1040100084C0925392FEC0D075D000C000C001C0D1
:1040200002C003C004C005C006C00790C7D6E03078
:10403000E7267480F09084D0E030E12390C7D6E08A
:104040004402F00000E054FD4401F07F077E0012BE
:104050001D97E054FEF080079084D0E04404F09077
:1040600084D0E09084D330E0057404F080037402BF
:10407000F09084DAA3E0FAA3E0F9120682D007D028
:1040800006D005D004D003D002D001D000D0D0D0CB
:1040900092D084D085D082D083D0F0D0E032A907EE
:1040A0008B828A83E9B4FF0474FFF022E930E708C9
:1040B0008D828C837401F022E95460FFBF60088D0B
:1040C000828C837402F022E97002F022E9F022C0AF
:1040D000E0C0F0C083C082C085C084C0925392FE0D
:1040E000C0D075D000C000C001C002C003C004C071
:1040F00005C006C00790C7A8E012065C4133004126
:104100003E0441460841610C416C104177184182E0
:104110001C41942042132441942842132C41943092
:1041200042133441943842133C41944042134400BA
:104130000042AC90C7AB7401F0123AB941AC90C7E1
:10414000AB7402F041AC90C7AB7404F090849FE470
:10415000F0A3F0A3F0A3F0A3F0A3F09084E7F04164
:10416000AC90C7AB7408F0123F9B41AC90C7AB74E6
:1041700010F0123FD941AC90C7A97401F0123DFF75
:1041800041AC90C7AA7401F09084A2E4F0A3F012AD
:104190003C1941AC90C7A8E024E8131313541F90B6
:1041A000847FF0E0FF7401A807088002C333D8FCC5
:1041B00090C7A9F0EF547F75F002A424B4F974C736
:1041C00035F0AF01908481F0A3EFF090847FE0544C
:1041D0007F75F080A4FFC374009FF974C795F0AF9A
:1041E00001908483F0A3EFF090847FE0547F75F01A
:1041F00002A424B5F974C735F0AF01908485F0A30B
:10420000EFF090847FE075F003A424A2F582E434FB
:1042100084807990C7A8E024E4131313541F90847A
:104220007FF0E0FF7401A807088002C333D8FC9038
:10423000C7AAF0EF547F75F002A424C4F974C735FF
:10424000F0AF01908481F0A3EFF090847FE075F0EF
:1042500080A4FFC374C09FF974C695F0AF01908429
:1042600083F0A3EFF090847FE075F002A424C5F9F9
:1042700074C735F0AF01908485F0A3EFF090847F90
:10428000E075F003A424B1F582E43484F583A3E05F
:10429000FAA3E0F9120682908480EFF0A3E0FCA379
:1042A000E0FD908485E0FAA3E0FB119ED007D006E4
:1042B000D005D004D003D002D001D000D0D0D0920D
:1042C000D084D085D082D083D0F0D0E0329085B039
:1042D000E05FC36001D32290FFFD120688EBF0A3DC
:1042E000EAF0A3E9F090FFFF120688851A83851B88
:1042F00082E4F090000A1206ACE0FBA3E0FAA3E02F
:10430000F9E412029E851A83851B82A3E0FBA3E0D9
:10431000FAA3E0F990000112021C640660028140D9
:1043200090000212021C24DF700261BB146002A123
:1043300090851A83851B827401F0A3E0FBA3E0FA49
:10434000A3E0F990000412021C75F008A4248CF577
:1043500082741035F0F583E493FB740193FA7402D0
:1043600093F9C003C002C0019000041206ACE0FB48
:10437000A3E0FAA3E0F91205DD851A83851B82A369
:10438000E0FBA3E0FAA3E0F990000412021C75F030
:1043900008A4248FF582741035F0F583E493FE743D
:1043A0000193FF9000051203C6FDACF0C3EF9DEE34
:1043B0009C50028078AE04AF058072851A83851BFD
:1043C000827401F0A3E0FBA3E0FAA3E0F9900004FB
:1043D00012021C75F008A42489F582741035F0F5DA
:1043E00083E493FB740193FA740293F9C003C0024F
:1043F000C0019000041206ACE0FBA3E0FAA3E0F9D0
:104400001205DD851A83851B82A3E0FBA3E0FAA3D6
:10441000E0F99000051203C6FFAEF0C374099FE4F3
:104420009E500A7C007D097E007F09800090000775
:104430001206ACE0FBA3E0FAA3E0F9EE8FF0A116C0
:10444000851A83851B82A3E0FBA3E0FAA3E0F9129F
:10445000020320E502A19090000112021C24FE60DC
:104460001F14605124FA600E14602F147002A12BE7
:10447000240A6002A190851A83851B82E4F0A19032
:10448000851A83851B827401F090000A1206ACE045
:10449000FBA3E0FAA3E0F9E4A18D851A83851B82D2
:1044A0007401F090000A1206ACE0FBA3E0FAA3E06E
:1044B000F97404A18D851A83851B827401F0A3E031
:1044C000FBA3E0FAA3E0F990000412021CFF7401C0
:1044D000A807088002C333D8FCFF51CD7F005002EB
:1044E0007F019085AFEFF07B017A8579AFC003C083
:1044F00002C0019000041206ACE0FBA3E0FAA3E0C6
:10450000F91205DD9000071206ACE0FBA3E0FAA368
:10451000E0F9E475F0011203FE90000A1206ACE027
:10452000FBA3E0FAA3E0F974048062851A83851B7B
:10453000827401F0A3E0FBA3E0FAA3E0F99000038A
:1045400012021CB4011A9085B0E0FF900004120220
:104550001CFE7401A806088002C333D8FC4F8019E2
:104560009085B0E0FF90000412021CFE7401A806C2
:10457000088002C333D8FCF45F9085B0F090000A45
:104580001206ACE0FBA3E0FAA3E0F9740512029E68
:10459000851A83851B82E0FF90000D0206889085B6
:1045A000B074FFF02290FFFF120688C21A851A83AA
:1045B000851B82E4F0851A83851B82E0FFC394018A
:1045C000500DB1DA851A83851B82E004F080E6B1D4
:1045D0009E121D41900001020688D310AF01C3C096
:1045E000D09085BFEFF0D0D092AF22EFC3940150AE
:1045F00002B1DA2290FFFF12068820172820132527
:10460000851A83851B82E4F0851A83851B82E0FF6F
:10461000C39401500DB1DA851A83851B82E004F042
:1046200080E6121D41900001020688AB07EC540F92
:10463000C454F0FF90840EE0540F4FF0EB540FFF82
:10464000E054F04FF0E0FD7F04021A2190840EEF59
:10465000F07F1D121B9C90840FEFF090840EE07F82
:104660000060027F01EF5401FF90840FE054FE4F81
:10467000F0E0FD7F1D021A21908427EFF0E513047E
:104680005403F50C90840DE0FFE52AC39F5006907B
:104690008351E004F090840DE52AF07514D7751568
:1046A000B9D285E50C6512604D908351E0FFAE13E1
:1046B000EE75F01DA42452F582E43483F583EFF007
:1046C000AF13EF75F01DA42453F582E43483F58312
:1046D000E528F0AF13EF75F01DA42454F974833569
:1046E000F0A801FC7D017B007A00792A7E007F1B07
:1046F000120950850C13C284C28522D310AF01C3A6
:10470000C0D090847DECF0A3EDF090847CEFF0C3FA
:1047100094015052EBD3943F40027B3FAF037E00A5
:1047200090847DE0FCA3E0AA04F97B0178CC7C8333
:104730007D011209509083C7E0FFC394809083CB22
:10474000400574FFF08002EFF090847CE09083C617
:10475000F090847DE0FEA3E0F5828E83E0B49406C1
:104760009083C87494F0D0D092AF2290840FEFF071
:104770009083C9EDF02290C7B6E030E103024850C3
:104780009083C9E0603790840E74C6F0A37480F003
:1047900090840EE0FEA3E0FFF5828E837426F090F5
:1047A00083C9E0FD8F828E83A3F090C7B77402F0B7
:1047B000EDB40103851312E49083C9F02290840EB6
:1047C00074C6F0A37480F0E4F508E5126513604D3B
:1047D000E508C394025046D284AF12EF75F01DA4D1
:1047E0002452F9748335F0FA7B01E50875F01DA4B5
:1047F000FF90840FE02401FD90840EE03400CD2F63
:10480000FFED35F0A807FC7D017E007F1D120950E9
:10481000E512045403F5120508C28480ADE508B41E
:10482000011590840EE0FEA3E0F5828E837423F0E0
:1048300090C7B7741EF022E508B4021490840EE00D
:10484000FEA3E0F5828E837424F090C7B7743BF02A
:1048500022301A0302477685131222E4908410F066
:10486000901126740193FA740293FF90840EEAF07B
:10487000A3EFF0E4F509E5092402FFE433FE908498
:104880000EE0FCA3E02FF582EC3EF583E493F460A8
:10489000089084107401F080070509E509B414D666
:1048A000908410E06002212878117C847D017BFFD8
:1048B0007A0179C7FE7F14120950E4F509D2FB741E
:1048C0000B2509F582E433F583E0F508C2FBC454F7
:1048D0000F9001DB93FFE50925E025E02411F58227
:1048E000E43484F583EFF0E508540F9001DB93FF87
:1048F000E50925E025E02413F582E43484F583EF0F
:10490000F00509E509B405B590840FE02402FF9095
:10491000840EE03400FE7B017A847911908570E486
:10492000F0A37414F012182C2290FFFF120688EFE7
:10493000F0201713201310C21A75D901851A838528
:104940001B82E0FF121FEB9000010206887F6022AD
:104950007F60227FFF22AB05AA04D205EF24FF92DD
:1049600000AE02AF037C037DE81206B9E47BE07A77
:104970002EF9F8120486908518EEF0A3EFF022E4E9
:10498000F509750802E50875F025A42422F8E2303F
:10499000E00205090508E508B403EAAF0922AE07FD
:1049A000EE75F025A42422F8E220E002D3229084C0
:1049B0000E7403F0317FA3EFF0AF067B017A8479A8
:1049C0000E9085797402F0A314F01216F9EF24FF0B
:1049D000227E007F037D007B007A0079560206E686
:1049E000D310AF01C3C0D0AC07E4F517EC75F00FDE
:1049F000A424F5F582E43484F583E5822517F58255
:104A0000E43583F583E0F516601EFF51ECEC75F09C
:104A10000FA424F5F582E43484F583E5822517F5A7
:104A200082E43583F583E4F00517E517C39402406B
:104A3000BBD0D092AF22908427EFF075F025A4244C
:104A400022F8E230E702D32271678F0EE50E700282
:104A5000C322E4F50D908427E075F00FA424F5F54A
:104A600082E43484F583E582250DF582E43583F50F
:104A700083E0F50C7051AF0E1215308F828E83E5F6
:104A800028F0FF7E00C006C007AF0E121530EF24DD
:104A900001FFE43EA807FC7D017B007A00792AD063
:104AA00007D006120950908427E075F00FA424F572
:104AB000F582E43484F583E582250DF582E43583BF
:104AC000F583E50EF0D322050DE50DC39402408574
:104AD000908427E075F025A42422F8E24480F2AF08
:104AE0000E51EC908427E0FF31E0D322D310AF01C8
:104AF000C3C0D0AD07C2251215308F828E83E51852
:104B0000F0AF058F18D0D092AF22D310AF01C3C041
:104B1000D0AC07EC602EC21C1217D69085B7EEF011
:104B2000A3EFF0F5828E83A3A3A3E0FF601251EC04
:104B30009085B7E0FEA3E0F5828E83A3A3A3E4F003
:104B4000AF047149D0D092AF22D310AF01C3C0D00F
:104B5000AD07C2271217D68F828E83E519F0AF05F5
:104B60008F19D0D092AF22D310AF01C3C0D0C224CE
:104B7000AD18ED600BFF1215308F828E83E0F518B3
:104B8000AF05D0D092AF22908427EFF09084797453
:104B900001F0A37484F0A37428F0EF75F025A42429
:104BA00022F8E230E704547FF2227E007F517D003C
:104BB0007B017A8479281206E6E4F50E908427E0DA
:104BC00075F00FA424F5F582E43484F583E582259D
:104BD0000EF582E43583F583E0F50D606CFF121568
:104BE000308F828E83E0F50CFF7E00C006C007AFD9
:104BF0000D121530EF2401FFE43EFAA9077B01C036
:104C000003C002908479E0FBA3E0FAA3E0F8AC02D1
:104C1000AD03D002D003D007D00612095090847A99
:104C2000E4850CF012036FAF0D51EC908427E07512
:104C3000F00FA424F5F582E43484F583E582250E93
:104C4000F582E43583F583E4F0050EE50EC39402A6
:104C5000500261BCAF287E00908479E0FBA3E0FAAB
:104C6000A3E0F8AC02AD037B007A00792A12095068
:104C700090847AE48528F012036F908427E024FE64
:104C8000FF7C847D28908479A3A3E0C39428FB0251
:104C900046FB750802E50875F025A42422F8E24FCA
:104CA000F20508E508B403ED22750802E50875F081
:104CB00025A42422F8E220E003AF08220508E50835
:104CC000B403E97F002290840EEFF07E007F087D20
:104CD000007B017A84790F1206E690840F7404F049
:104CE000E4A3F09000041205909084131205A090A4
:104CF000840EE0FF7B017A84790F9085797408F047
:104D0000A37401F00216F990842EEFF07E007F0567
:104D1000C006C0077D00E075F025A42418F9E4FA68
:104D20007BFED007D0061206E67E007F05C006C0D7
:104D3000077D0090842EE075F025A4241DF9E4FA87
:104D40007BFED007D0061206E690842EE075F02593
:104D5000A42421F87480F222908427EFF0E52870D3
:104D600002C12BE52A24FC7002A1EC24036002C1DD
:104D70002BE52864116002C12B7F2A908428EFF074
:104D800004F97A007B00C001908427E075F025A427
:104D90002400F9E4A801FC7DFED001FE7F10120979
:104DA00050908427E0FF12157B908427E0FFB10725
:104DB000908427E075F00FA424E8F9748435F0FAA4
:104DC0007B01C003C001A3E004F91B90854EEBF00A
:104DD000A3F0A3E9F0D001D003122677908427E056
:104DE00075F025A42422F8E24404F222E528C394B5
:104DF0000840387F2A908428EFF0FB2404F812053D
:104E000084908427E0FA75F00FA424F0F582E4344E
:104E100084F5831205A0EB04F8E6FFEA75F00FA411
:104E200024F4F582E43484F583EFF022745C2FF8E7
:104E3000E6C37001D322D310AF01C3C0D0AD07C207
:104E40000E745C2DF8E6FC601DFF1217D68F828E63
:104E500083E0FF745C2DF8A607745C2DF8E67006FD
:104E600074592DF8E4F6AF04D0D092AF22A807E22F
:104E700004F27029E804F8E204F27021EF2402F849
:104E8000E204F27018EF2403F8E204F2700FEF244A
:104E900004F8E2FE04547FFDEE54804DF22290842B
:104EA00027EFF0A805E2FF5407F50CEB5470C4544B
:104EB0000FF50DB50C02C322EF54F8450DFF908499
:104EC00027E0FEF8EFF2ED04F97A007BFEEE04F83D
:104ED0007C007DFE7E007F04120950E50DC3950C19
:104EE0005037908427E0F8E22408F2650D702AE834
:104EF00004F8E204F27022E0FF2402F8E204F27007
:104F000018EF2403F8E204F2700FE02404F8E2FF43
:104F100004547FFEEF54804EF2D322908584A3A3E5
:104F2000A3E05401FFE4FEFDFC120518EF5401FF5D
:104F3000E4FEFDEC54D0FCC004C005C006C00790E0
:104F40008584E0FCA3E0FDA3E0FEA3E0FF7801126E
:104F5000054DD003D002D001D000EF6BFFEE6AFE0A
:104F6000ED69FDEC68FC9085841205A0908584E0D5
:104F7000FCA3E0FDA3E0FEA3E0FF221202B07F034A
:104F8000908424EFF0F11B908424E014F070F6225A
:104F900090841AEBF0A3EAF0A3E9F0908420740B5C
:104FA000F0E92401F9E43AFAC002C00178847C8572
:104FB0007D01D001D0027E007F04120950908584CB
:104FC000E0F8A3E0F9A3E0FAA3E0FBC001C002C04F
:104FD0000390841AE0FBA3E0FAA3E0F9120203FFB6
:104FE000D003D002D001EB6FFFEAFEE9FDE8FC90B0
:104FF00085841205A0E4FFFEFDFC908584E0F8A303
:10500000E0F9A3E0FAA3E0FBC312053C700A908527
:10501000841205AC00000001E4908421F0124F1BC3
:10502000C007908420E0FBE4FAF9F8D00712048668
:10503000908420E0FEA3E0FD8EF0A42B2402FF90DC
:10504000841DE0FBA3E0FAA3E0F98D82758300EFF5
:10505000124F7B908421E004F0E0C3940740BE909F
:1050600084217401F0908421E0FFC394075047E04D
:10507000FE24FFFDE434FFFC90841DE0FBA3E0FA76
:10508000A3E0F98D828C8312021CFD8E8275830051
:1050900012021CC39D908422F0C394055010E0FEC0
:1050A000C374059EFE8F82758300EE12026B90849E
:1050B00021E004F080AF90841DE0FBA3E0FAA3E0C0
:1050C000F990000612021CD3945040089000067418
:1050D000501202B09084217406F0124F1BC006C01B
:1050E00007908421E02401FFE433AB07FAE4F9F8E8
:1050F000D007D006120486908422EBF090841DE045
:10510000FBA3E0FAA3E0F9908421E0FFF582758328
:105110000012021CFE908423F0908422E0FDF582B0
:1051200075830012021C8F827583001202B08D827B
:10513000758300EE124F7B908421E014F0D394012C
:10514000509822D310AF01C3C0D0122786EF60174A
:10515000A218921F12271590842EEEF0A3EFF024D0
:1051600009FFE43EFE8003E4FEFFD0D092AF22A20E
:1051700019E433FF22D21322201105121E07D21187
:10518000301205121DA9C212229085B9E06003B445
:10519000010B9085B97401F0A3EFF0D21222908533
:1051A000B9E0B40107E49085B9F0D212229084905E
:1051B000EEF0A3EFF0A37410F0908492E090113D14
:1051C00093F46019908490E0FEA3E0AA06F97B01B5
:1051D00078997C857D017E007F050209509084923C
:1051E000E014F070D47E117F3E908490E0FCA3E048
:1051F000AA04F97B01908570E4F0A37410F0021802
:105200002C908599E004F07016A3E004F07010A3D0
:10521000E004F0700AA3E004F07004A3E004F022BC
:1052200080DFD310AF01C3C0D0ED700241D4D3945E
:1052300010AF0540027F109085BBEFF05101E4F5FF
:10524000F59085BC7410F09085BCE090113D93F50D
:10525000F19085BCE014F070EEF5F67405F09085E1
:10526000BCE090114D93F5F39085BCE014F070EE26
:105270007405F09085BCE02498F582E43485F583CC
:10528000E0F5F39085BCE014F070E87406F0E4F506
:10529000F39085BCE014F070F575E811E5E820E0C6
:1052A000FB9085BBE0A3F09085BCE07E0024FFF579
:1052B00082EE34FFF583E5F31202B09085BCE01472
:1052C000F070E49085BBE0FFC3ED9FFDEF29F9EEA0
:1052D0003AFA4129D0D092AF22E4F5187D01FCAF13
:1052E000051215308F828E83E518F08D180DBD00E4
:1052F000010CED64114C70E72251D9E4F5197D01E0
:10530000FCAF051217D68F828E83E519F08D190D2B
:10531000BD00010CED64154C70E722D310AF01C342
:10532000C0D0C226AD19ED600BFF1217D68F828E4A
:1053300083E0F519AF05D0D092AF22FFFFFFFFFF4A
:10534000FFFFFFFFFFFFFFFFFFFFFFFFFFFFFFFF6D
:10535000FFFFFFFFFFFFFFFFFFFFFFFFFFFFFFFF5D
:10536000FFFFFFFFFFFFFFFFFFFFFFFFFFFFFFFF4D
:10537000FFFFFFFFFFFFFFFFFFFFFFFFFFFFFFFF3D
:10538000FFFFFFFFFFFFFFFFFFFFFFFFFFFFFFFF2D
:10539000FFFFFFFFFFFFFFFFFFFFFFFFFFFFFFFF1D
:1053A000FFFFFFFFFFFFFFFFFFFFFFFFFFFFFFFF0D
:1053B000FFFFFFFFFFFFFFFFFFFFFFFFFFFFFFFFFD
:1053C000FFFFFFFFFFFFFFFFFFFFFFFFFFFFFFFFED
:1053D000FFFFFFFFFFFFFFFFFFFFFFFFFFFFFFFFDD
:1053E000FFFFFFFFFFFFFFFFFFFFFFFFFFFFFFFFCD
:1053F000FFFFFFFFFFFFFFFFFFFFFFFFFFFFFFFFBD
:00000001FF
